:100000000C9434000C9451000C9451000C94510049
:100010000C9451000C9451000C9451000C9451001C
:100020000C9451000C9451000C94BC000C945100A1
:100030000C9451000C9451000C9451000C945100FC
:100040000C9451000C9451000C9451000C945100EC
:100050000C9451000C9451000C9451000C945100DC
:100060000C9451000C94510011241FBECFEFD8E026
:10007000DEBFCDBF11E0A0E0B1E0E8EBFBE002C0E5
:1000800005900D92AE30B107D9F721E0AEE0B1E0B6
:1000900001C01D92A632B207E1F70E94CC010C9478
:1000A000DA050C940000F8948AB188608AB9A1EB53
:1000B000B0E08C9181608C938C9182608C938C9158
:1000C00084608C93E0EBF0E08081816080838081AC
:1000D000826080838C91877F8C9380818F7E8083E8
:1000E00080818062808383EC8093B3008FE780936C
:1000F000B40078940895F8948AB180688AB984B17C
:100100008E7F84B985B1816085B9E1E8F0E08081B6
:100110008E7F808380818260808380818B7F8083DB
:10012000AFE6B0E08C9180628C93808180648083A4
:1001300086B3806286BB8AB180628AB985B58160E8
:1001400085BD85B58D7F85BD85B5846085BD84B54C
:10015000816084BD84B58D7F84BD85B5877F85BD75
:1001600084B58F7E84BD84B5806284BD83EC87BDF9
:100170008FE788BD789408951F920F920FB60F9263
:1001800011242F933F934F935F936F937F938F939C
:100190009F93AF93BF93EF93FF9386B3806286BB29
:1001A0008091860090918700A0E0B0E080931601D6
:1001B00090931701A0931801B093190180918100C9
:1001C00086FD79C040911601509117016091180188
:1001D0007091190180911A0190911B01A0911C014D
:1001E000B0911D0184179507A607B707E0F4809129
:1001F000160190911701A0911801B0911901409139
:100200001A0150911B0160911C0170911D01841B0A
:10021000950BA60BB70B8093120190931301A0933B
:100220001401B0931501409116015091170160918E
:1002300018017091190180911A0190911B01A091F0
:100240001C01B0911D01481759076A077B07E8F4A4
:100250008091160190911701A0911801B091190198
:1002600040911A0150911B0160911C0170911D0178
:10027000841B950BA60BB70B1196809312019093DC
:100280001301A0931401B0931501609112017091B4
:100290001301809114019091150124E730E040E0B2
:1002A00050E00E94CE0220930E0130930F01409344
:1002B0001001509311018091160190911701A091A6
:1002C0001801B091190180931A0190931B01A0931A
:1002D0001C01B0931D01E1E8F0E0908180E48927E2
:1002E0008083FF91EF91BF91AF919F918F917F910B
:1002F0006F915F914F913F912F910F900FBE0F9093
:100300001F90189581E090E090931F0180931E014B
:10031000909325018093240188E788BD8093B400E1
:10032000089510921F0110921E0110922501109243
:10033000240188E788BD8093B400089581E090E0AF
:1003400090931F0180931E011092250110922401A9
:1003500088EC88BD84E68093B400089510921F0154
:1003600010921E0181E090E090932501809324017A
:1003700084E688BD88EC8093B400089581E090E025
:1003800090931F0180931E01909325018093240177
:1003900018BC1092B4000895CF93DF93CDB7DEB7A9
:1003A00069970FB6F894DEBF0FBECDBF80E895E227
:1003B0000E948D020E9453000E947B008BB18068D6
:1003C0008BB98FE891E00197F1F700C000008BB185
:1003D0008F778BB99FEFEDEEF2E09150E040F04067
:1003E000E1F700C000008E010F5F1F4F89E1F801A7
:1003F00011928A95E9F780910E0190910F01A091D9
:100400001001B0911101BF93AF939F938F9380E040
:1004100091E09F938F931F930F930E94F002C80166
:100420000E94C10280912001909121010FB6F894A1
:10043000DEBF0FBECDBF8130910521F52091220195
:100440003091230121303105E9F440910E015091A2
:100450000F0160911001709111014B305105610540
:10046000710580F040910E0150910F0160911001D3
:10047000709111014E3151056105710518F40E940A
:1004800082019CCF8130910549F420912201309165
:100490002301232B19F40E94AE0190CF009751F451
:1004A00020912201309123012130310519F40E945D
:1004B0009E0184CF019731F4809122019091230114
:1004C0000197C1F080910E0190910F01A091100150
:1004D000B09111010697A105B10578F080910E0148
:1004E00090910F01A0911001B09111010A97A105FF
:1004F000B10518F40E94BE0161CF80910E01909168
:100500000F01A0911001B09111010597A105B1054E
:1005100008F054CF0E94910151CF092E000CAA0B74
:10052000BB0B880F991FAA1FBB1F880F991FAA1FFB
:10053000BB1F9C01AD01220F331F441F551F220F0B
:10054000331F441F551F60E074E284EF90E00E9467
:10055000CE02215031093093C5002093C40088E1B8
:100560008093C100E2ECF0E086E0808380818860C7
:10057000808308959091C00095FFFCCF8093C600C2
:100580000895CF93DF93EC0103C00E94BA02219635
:1005900088818111FACFDF91CF910895A1E21A2EBF
:1005A000AA1BBB1BFD010DC0AA1FBB1FEE1FFF1F17
:1005B000A217B307E407F50720F0A21BB30BE40B67
:1005C000F50B661F771F881F991F1A9469F76095AE
:1005D0007095809590959B01AC01BD01CF01089568
:1005E000AEE0B0E0E6EFF2E00C94B1050D891E89B3
:1005F00086E08C831A8309838FEF9FE79E838D8328
:10060000AE01475E5F4F6F89788DCE0101960E94E3
:100610001203EF81F885E00FF11F10822E96E4E0BF
:100620000C94CD05ABE0B0E0E8E1F3E00C94A30559
:100630006C017B018A01FC0117821682838181FF94
:10064000CCC1CE0101963C01F6019381F70193FDE7
:10065000859193FF81917F01882309F4BAC1853286
:1006600039F493FD859193FF81917F01853229F4BF
:10067000B60190E00E940905E7CF912C212C312C86
:10068000FFE1F315D8F08B3279F038F4803279F04D
:100690008332A1F4232D20611DC08D3261F080339F
:1006A00069F4232D216016C0832D8260382EE32D3E
:1006B000E4603E2E2AC0F32DF8601DC037FC2DC02B
:1006C00020ED280F2A3040F08E32B9F436FC81C17B
:1006D000232D2064322E19C036FE06C08AE0989E73
:1006E000200D1124922E11C0EAE02E9E200D11241F
:1006F000222EF32DF0623F2E08C08C3621F4832D7C
:100700008068382E02C0883641F4F70193FD859148
:1007100093FF81917F018111B3CF982F9F7D9554D5
:10072000933028F40C5F1F4F9FE399830DC08336ED
:1007300031F0833771F0833509F059C021C0F801D9
:10074000808189830E5F1F4F88248394912C5301ED
:1007500013C02801F2E04F0E511CF801A080B180B7
:1007600036FE03C0692D70E002C06FEF7FEFC50158
:100770000E94FE044C018201F32DFF773F2E16C02C
:10078000280122E0420E511CF801A080B18036FE03
:1007900003C0692D70E002C06FEF7FEFC5010E94BA
:1007A000F3044C01F32DF0683F2E820133FC1BC093
:1007B000822D90E088169906B0F4B60180E290E0B0
:1007C0000E9409052A94F4CFF50137FC859137FE84
:1007D00081915F01B60190E00E94090521102A94E1
:1007E00021E0821A91088114910471F7E8C08436DF
:1007F00011F0893641F5F80137FE07C0608171813B
:10080000828193810C5F1F4F08C060817181072E28
:10081000000C880B990B0E5F1F4FF32DFF763F2EB8
:1008200097FF09C090958095709561957F4F8F4F88
:100830009F4FF0683F2E2AE030E0A3010E9445055B
:10084000882E861845C0853731F4232D2F7EB22E91
:100850002AE030E025C0932D997FB92E8F36C1F064
:1008600018F4883579F0B5C0803719F0883721F051
:10087000B0C0E92FE061BE2EB4FE0DC0FB2DF460C8
:10088000BF2E09C034FE0AC0292F2660B22E06C032
:1008900028E030E005C020E130E002C020E132E095
:1008A000F801B7FE07C060817181828193810C5F7E
:1008B0001F4F06C06081718180E090E00E5F1F4F86
:1008C000A3010E944505882E8618FB2DFF773F2E39
:1008D00036FE0DC0232D2E7FA22E891458F434FE2F
:1008E0000BC032FC09C0832D8E7EA82E05C0B82C0B
:1008F000A32C03C0B82C01C0B92CA4FE0FC0FE016C
:10090000E80DF11D8081803321F49A2D997EA92E66
:1009100009C0A2FE06C0B394B39404C08A2D8678A1
:1009200009F0B394A3FC11C0A0FE06C0B21488F471
:10093000280C922C9B180EC0B21460F4B60180E211
:1009400090E00E940905B394F7CFB21418F42B1865
:1009500002C0982C212CA4FE10C0B60180E390E0C8
:100960000E940905A2FE17C0A1FC03C088E790E021
:1009700002C088E590E0B6010CC08A2D867859F057
:10098000A1FE02C08BE201C080E2A7FC8DE2B601AD
:1009900090E00E940905891438F4B60180E390E0E4
:1009A0000E9409059A94F7CF8A94F301E80DF11D8E
:1009B0008081B60190E00E9409058110F5CF2220C8
:1009C00009F442CEB60180E290E00E9409052A9423
:1009D000F6CFF6018681978102C08FEF9FEF2B96AD
:1009E000E2E10C94BF05FC010590615070400110DC
:1009F000D8F7809590958E0F9F1F0895FC01615048
:100A0000704001900110D8F7809590958E0F9F1F30
:100A100008950F931F93CF93DF93FB01238121FD53
:100A200003C08FEF9FEF2CC022FF16C04681578175
:100A3000248135814217530744F4A081B1819D017F
:100A40002F5F3F4F318320838C93268137812F5F27
:100A50003F4F3783268314C08B01EC01FB010084D8
:100A6000F185E02D0995892BE1F6D80116968D9137
:100A70009C911797019617969C938E931697CE018B
:100A8000DF91CF911F910F910895FA01AA27283085
:100A900051F1203181F1E8946F936E7F6E5F7F4F4B
:100AA0008F4F9F4FAF4FB1E03ED0B4E03CD0670FC7
:100AB000781F891F9A1FA11D680F791F8A1F911D1A
:100AC000A11D6A0F711D811D911DA11D20D009F46A
:100AD00068943F912AE0269F11243019305D3193AC
:100AE000DEF6CF010895462F4770405D4193B3E095
:100AF0000FD0C9F7F6CF462F4F70405D4A3318F03C
:100B0000495D31FD4052419302D0A9F7EACFB4E0EC
:100B1000A6959795879577956795BA95C9F70097A4
:100B20006105710508959B01AC010A2E0694579545
:100B3000479537952795BA95C9F7620F731F841F9C
:100B4000951FA01D08952F923F924F925F926F9232
:100B50007F928F929F92AF92BF92CF92DF92EF924D
:100B6000FF920F931F93CF93DF93CDB7DEB7CA1BCE
:100B7000DB0B0FB6F894DEBF0FBECDBF09942A88F9
:100B8000398848885F846E847D848C849B84AA84A1
:100B9000B984C884DF80EE80FD800C811B81AA812E
:100BA000B981CE0FD11D0FB6F894DEBF0FBECDBFF9
:080BB000ED010895F894FFCF58
:0E0BB80064697374616E636520256C640A00C5
:00000001FF
