:100000000C9434000C9446000C9446000C9446006A
:100010000C9446000C9446000C9446000C94460048
:100020000C9446000C9446000C94BE000C944600C0
:100030000C9446000C9495010C9446000C944600D8
:100040000C9446000C9446000C9446000C94460018
:100050000C9446000C9446000C9446000C94460008
:100060000C9446000C94460011241FBECFEFD8E03C
:10007000DEBFCDBF21E0A0E0B1E001C01D92A43100
:10008000B207E1F70E94F7010C949E020C94000065
:100090001092C50087E68093C40088E18093C10078
:1000A000E2ECF0E086E080838081886080830895C0
:1000B000F8948AB180688AB984B18E7F84B985B199
:1000C000816085B9E1E8F0E080818E7F8083808166
:1000D0008260808380818B7F8083AFE6B0E08C91EB
:1000E00080628C9380818064808386B3806286BBCB
:1000F00086B3816086BB78940895F8948AB188604D
:100100008AB984B1886084B9A1EBB0E08C91816038
:100110008C938C9182608C938C9184608C93E0EBB7
:10012000F0E080818160808380818D7F80838C91ED
:10013000877F8C9380818F7E8083808180628083A3
:1001400080818F7B80838081806880831092B30060
:100150001092B40078940895F8948AB18F7B8AB98C
:1001600084B18F7E84B984B18F7D84B98AB1846073
:100170008AB98AB180618AB9789408951F920F92E2
:100180000FB60F9211242F933F934F935F936F936A
:100190007F938F939F93AF93BF93EF93FF93809140
:1001A000810086FF0DC01092000110920101109293
:1001B000020110920301EFE6F0E08081816080830C
:1001C00086B3806286BB8091860090918700A0E014
:1001D000B0E080930C0190930D01A0930E01B093B9
:1001E0000F018091810086FD79C040910C015091F2
:1001F0000D0160910E0170910F018091100190919D
:100200001101A0911201B091130184179507A6075F
:10021000B707E0F480910C0190910D01A0910E01BF
:10022000B0910F01409110015091110160911201A4
:1002300070911301841B950BA60BB70B80930801DB
:1002400090930901A0930A01B0930B0140910C0116
:1002500050910D0160910E0170910F01809110017C
:1002600090911101A0911201B09113014817590703
:100270006A077B07E8F480910C0190910D01A09131
:100280000E01B0910F014091100150911101609148
:10029000120170911301841B950BA60BB70B1196DD
:1002A0008093080190930901A0930A01B0930B0178
:1002B000609108017091090180910A0190910B01F0
:1002C00024E730E040E050E00E947C0220930401EB
:1002D00030930501409306015093070180910C0172
:1002E00090910D01A0910E01B0910F01809310012A
:1002F00090931101A0931201B0931301E1E8F0E093
:10030000908180E489278083FF91EF91BF91AF9125
:100310009F918F917F916F915F914F913F912F911D
:100320000F900FBE0F901F9018951F920F920FB64F
:100330000F9211248F939F93AF93BF9380910001ED
:1003400090910101A0910201B09103010196A11DBC
:10035000B11D8093000190930101A0930201B0931D
:100360000301BF91AF919F918F910F900FBE0F909E
:100370001F9018958BB180618BB98BB18B7F8BB936
:1003800088E78093B3008093B40008958BB18F7E8B
:100390008BB98BB184608BB988E78093B30080936D
:1003A000B40008958BB180618BB98BB18B7F8BB911
:1003B0008AEF8093B30082E38093B40008958BB1F9
:1003C00080618BB98BB18B7F8BB982E38093B30053
:1003D0008AEF8093B40008958BB180618BB98BB1A3
:1003E0008B7F8BB91092B3001092B40008950E94D5
:1003F00048000E9458000E947D000E94AC0084B119
:100400008B7F84B984B18D7F84B98AB18F7D8AB99D
:10041000C0E0D0E08BB180688BB98FE891E00197A4
:10042000F1F700C000008BB18F778BB99FEF2DEEF5
:1004300082E0915020408040E1F700C000004E9BD8
:100440000BC09FEF27EE83E0915020408040E1F702
:1004500000C000004E992196C0FF3FC01C991DC0EE
:100460001D991BC08091040190910501A091060186
:10047000B09107010997A105B10578F080910401B9
:1004800090910501A0910601B09107014E97A10539
:10049000B10518F40E94BA01BDCF1D9905C01C9B7F
:1004A00003C00E94D201B6CF1D9B05C01C9903C09A
:1004B0000E94DF01AFCF8091040190910501A091CE
:1004C0000601B09107010597A105B10518F40E9436
:1004D000C601A0CF0E94EC019DCF1A9908C0199BBC
:1004E0000E94DF014D9996CF0E94D20193CF1092C6
:1004F000B3001092B4008ECFA1E21A2EAA1BBB1B30
:10050000FD010DC0AA1FBB1FEE1FFF1FA217B307DF
:10051000E407F50720F0A21BB30BE40BF50B661FF5
:10052000771F881F991F1A9469F7609570958095B9
:1005300090959B01AC01BD01CF010895F894FFCFC8
:00000001FF
